:020000040800F2
:1000000078060020650100086D010008BD030008A6
:1000100000000000000000000000000000000000E0
:100020000000000000000000000000007101000856
:1000300000000000000000007301000875010008C6
:1000400077010008770100087701000877010008B0
:1000500077010008770100087701000877010008A0
:100060007701000877010008770100087701000890
:100070007701000877010008770100087701000880
:100080007701000877010008770100087701000870
:1000900077010008B1040008770100087701000823
:1000A0007701000877010008770100087701000850
:1000B0007701000877010008770100087701000840
:1000C00000F002F800F03EF80CA030C80838241800
:1000D0002D18A246671EAB4654465D46AC4201D180
:1000E00000F030F87E460F3E0FCCB6460126334274
:1000F00000D0FB1AA246AB4633431847BC040000AD
:10010000DC040000103A02D378C878C1FAD852074C
:1001100001D330C830C101D504680C6070470000BD
:100120000023002400250026103A01D378C1FBD813
:10013000520700D330C100D50B6070471FB51FBDFB
:1001400010B510BD00F0DAF81146FFF7F7FF00F028
:1001500015FA00F0F2F803B4FFF7F2FF03BC00F069
:10016000F9F800000748804707480047FEE7FEE728
:10017000FEE7FEE7FEE7FEE704480549054A064BB1
:100180007047000055040008C100000878000020F6
:10019000780600207802002078020020002203095F
:1001A0008B422CD3030A8B4211D300239C464EE092
:1001B00003460B433CD4002243088B4231D303094E
:1001C0008B421CD3030A8B4201D394463FE0C30900
:1001D0008B4201D3CB01C01A524183098B4201D318
:1001E0008B01C01A524143098B4201D34B01C01A03
:1001F000524103098B4201D30B01C01A5241C3087B
:100200008B4201D3CB00C01A524183088B4201D3E9
:100210008B00C01A524143088B4201D34B00C01AD5
:100220005241411A00D201465241104670475DE0EA
:10023000CA0F00D04942031000D34042534000226D
:100240009C4603098B422DD3030A8B4212D3FC2216
:10025000890112BA030A8B420CD3890192118B4295
:1002600008D3890192118B4204D389013AD09211AB
:1002700000E08909C3098B4201D3CB01C01A524166
:1002800083098B4201D38B01C01A524143098B422F
:1002900001D34B01C01A524103098B4201D30B0118
:1002A000C01A5241C3088B4201D3CB00C01A52413D
:1002B00083088B4201D38B00C01A5241D9D2430824
:1002C0008B4201D34B00C01A5241411A00D2014661
:1002D000634652415B10104601D34042002B00D5CB
:1002E0004942704763465B1000D3404201B500208D
:1002F000C046C04602BD704770477047754600F063
:1003000025F8AE46050069465346C008C00085463C
:1003100018B020B5FFF730FF60BC00274908B6468B
:100320000026C0C5C0C5C0C5C0C5C0C5C0C5C0C504
:10033000C0C5403D49008D46704710B50446C046D3
:10034000C0462046FFF707FF10BD00000048704779
:100350001400002001491820ABBEFEE72600020071
:10036000704700000248C168C2031143C160704772
:100370000008004830B50F4A10692021000A0840E3
:100380000D498870126901235B031A40D24392041D
:1003900001D500BF0BE04D78074A0346AB43121D61
:1003A0000D781478AB431C43147000220A70487017
:1003B00030BD0000000800480C00002000BF70475E
:1003C00010B50E4C4B2109012088FFF7E7FE0920EC
:1003D000C006032200290BD06188491E0904090CBC
:1003E000618004D1416951404161101F608010BD9E
:1003F0004169514041611420F8E7000000000020ED
:100400000920C00601680522114301607047000001
:100410000348016855221202114301607047000031
:10042000000400480948F02201884904090C1140E1
:10043000018001D11021018005494B6993434B6133
:100440004A69008802434A617047000008000020A2
:10045000000400481248016801221143016041680C
:10046000104A1140416001680F4A11400160016863
:10047000012292049143016041683F22120491439A
:100480004160C16A09090901C162016B074A114053
:100490000163416B49084900416300218160704755
:1004A000001002400CB8FF08FFFFF6FE2CFEFCFF18
:1004B00010B5114801694908490001610F490878E0
:1004C000C00715D0081F0288521E1204120C0280A9
:1004D00004D0FFF7A7FFFFF773FF10BD00220A60EB
:1004E0000749018007484169F0229143416110BDED
:1004F000FFF740FF10BD0000004401400400002051
:10050000C05D00000004004810B50E48816901225A
:100510005204114381610C48002181620B49C16280
:10052000C16801221143C160094B51051960094B93
:100530001968FF242402A143196001681143016076
:1005400010BD000000100240004401401F4E00009A
:1005500000E100E014E400E010B50748416907221B
:10056000520411434161FFF74BFFFFF7FBFEFFF71A
:100570004FFFFFF7C9FF10BD00100240FFF7ECFF6F
:1005800003200921C90688610949084808800848EC
:100590000021001D01600749012320240A689506F7
:1005A000FCD5A24303600A60F8E70000C05D0000CC
:1005B0000000002010000020D805000800000020E6
:1005C0001400000004010008EC05000814000020DD
:1005D0006406000020010008000000000000000088
:0C05E0001000000020202000000000009F
:04000005080000C12E
:00000001FF
