:020000040800F2
:10000000001000203D0E00088D0E00088D0E000827
:1000100000000000000000000000000000000000E0
:100020000000000000000000000000008D0E00082D
:1000300000000000000000008D0E00088D0E00087A
:100040008D0E00088D0E00088D0E00088D0E000824
:100050008D0E00088D0E00088D0E00088D0E000814
:10006000000000008D0E00088D0E00088D0E0008A7
:100070008D0E00088D0E00088D0E00080000000097
:100080008D0E00088D0E0008000000008D0E000887
:100090008D0E0008B10800088D0E00088D0E0008B6
:1000A0008D0E00088D0E00088D0E00088D0E0008C4
:1000B0008D0E00088D0E0008000000008D0E000857
:1000C00010B5064C2378002B07D1054B002B02D02E
:1000D000044800E000BF0123237010BD0C00002085
:1000E00000000000D80E0008044B10B5002B03D010
:1000F0000349044800E000BF10BDC04600000000F6
:1001000010000020D80E000803460B437FD40022C5
:1001100043088B4274D303098B425FD3030A8B429B
:1001200044D3030B8B4228D3030C8B420DD3FF2205
:10013000090212BA030C8B4202D31212090265D0D3
:10014000030B8B4219D300E0090AC30B8B4201D386
:10015000CB03C01A5241830B8B4201D38B03C01ACD
:100160005241430B8B4201D34B03C01A5241030B44
:100170008B4201D30B03C01A5241C30A8B4201D3F5
:10018000CB02C01A5241830A8B4201D38B02C01AA0
:100190005241430A8B4201D34B02C01A5241030A17
:1001A0008B4201D30B02C01A5241CDD2C3098B42FC
:1001B00001D3CB01C01A524183098B4201D38B0179
:1001C000C01A524143098B4201D34B01C01A52411C
:1001D00003098B4201D30B01C01A5241C3088B4261
:1001E00001D3CB00C01A524183088B4201D38B004C
:1001F000C01A524143088B4201D34B00C01A5241EE
:10020000411A00D201465241104670475DE0CA0FC4
:1002100000D04942031000D34042534000229C4684
:1002200003098B422DD3030A8B4212D3FC2289018E
:1002300012BA030A8B420CD3890192118B4208D364
:10024000890192118B4204D389013AD0921100E0C6
:100250008909C3098B4201D3CB01C01A52418309DA
:100260008B4201D38B01C01A524143098B4201D307
:100270004B01C01A524103098B4201D30B01C01A32
:100280005241C3088B4201D3CB00C01A52418308AC
:100290008B4201D38B00C01A5241D9D243088B4202
:1002A00001D34B00C01A5241411A00D201466346A5
:1002B00052415B10104601D34042002B00D5494209
:1002C000704763465B1000D3404201B5002000F048
:1002D00005F802BD0029F8D016E770477047C04600
:1002E00080B500AFC046BD4680BD000080B582B07D
:1002F00000AF0200FB1D1A70FB1D1B787F2B09D875
:10030000FB1D1B781A001F231A40044B012191404A
:100310000A001A60C046BD4602B080BD00E100E0A0
:1003200090B583B000AF02003960FB1D1A70FB1D51
:100330001B787F2B28D82F4AFB1D1B785BB29B08AC
:10034000C0339B009B58FA1D1278110003220A400B
:10035000D200FF2191400A00D2431A4011003B68AD
:100360009B01FF221A40FB1D1B781800032303404A
:10037000DB009A401F48FB1D1B785BB29B080A43B9
:10038000C0339B001A5031E01B4AFB1D1B7819003B
:100390000F230B40083B9B0806339B00D318043304
:1003A0001B68FA1D1278110003220A40D200FF21B7
:1003B00091400A00D2431A4011003B689B01FF2282
:1003C0001A40FB1D1B78180003230340DB009A40F2
:1003D0000948FB1D1B781C000F232340083B9B088A
:1003E0000A4306339B00C31804331A60C046BD4657
:1003F00003B090BD00E100E000ED00E080B582B008
:1004000000AF9023DB051B69DBB207221340DAB291
:100410002E4B1A70FB1D14221A709023DB051B69EA
:10042000DB430722134028D0294B1B685A1E284B58
:100430001A60274B1B68002B3FD1244B1B78DB43F2
:10044000DBB207221340DAB2224B5A70214B5A78A2
:10045000214B1B781343DAB21F4B1A70FB1D1B781C
:100460001900FA23D800FFF74FFE031E00DA03330A
:100470009B101A00164B1A601FE0154BFA2252000F
:100480001A60144B1B785AB2144B1B785BB2DB43D7
:100490005BB20E49097849B20B405BB20E4909784C
:1004A00049B2C94349B20B405BB213435BB2DAB203
:1004B000084B1A70084B00221A70044B1A78074B2D
:1004C0001A70C046BD4602B080BDC0460000002084
:1004D0000400002034000020080000200900002053
:1004E00090B583B000AF040008001100FB1D221C72
:1004F0001A70BB1D021C1A707B1D0A1C1A70744BEB
:100500009A69734B73490A439A619023DB059A6990
:100510009023DB05E02109040A439A616C4B9A6938
:100520006B4BF02109060A439A61FB1D1B78092BCE
:1005300000D98EE09A00684BD3181B689F46644B25
:100540009A69634B07210A439A619023DB059A69F4
:100550009023DB05E0210A439A617BE09023DB05D1
:100560009A699023DB05C0210A439A6172E0584BD7
:100570009A69574B59490A439A619023DB059A6956
:100580009023DB0560210A439A6163E0504B9A692E
:100590004F4B53490A439A619023DB059A69902394
:1005A000DB05E0210A439A6154E0494B9A69484BC4
:1005B0004C490A439A619023DB059A699023DB0535
:1005C000C0210A439A6145E0414B9A69404B464934
:1005D0000A439A619023DB059A699023DB05A021E9
:1005E0000A439A6136E03A4B9A69394B3F490A43CC
:1005F0009A619023DB059A699023DB05A0210A43C9
:100600009A6127E09023DB059A699023DB05E021BE
:100610000A439A611EE02E4B9A692D4B33490A43D7
:100620009A619023DB059A699023DB05E0210A4358
:100630009A610FE0264B9A69254B2B490A439A6130
:100640009023DB059A699023DB05E0210A439A6138
:1006500000E0C046BB1D1B78002B06D01C4B9A69DE
:100660001B4B802109010A439A617B1D1B78082BD3
:1006700020D027DC042B15D024DC012B02D0022B48
:1006800008D01FE0124B9A69114B802109020A43DE
:100690009A6118E00E4B9A690D4B8021C9010A43FB
:1006A0009A6110E00A4B9A69094B802189010A433B
:1006B0009A6108E0064B9A69054B802149010A437B
:1006C0009A6100E0C046C046BD4603B090BDC0463A
:1006D000000400480000070CF00E000803040000AE
:1006E00001040000040400000504000007040000E9
:1006F00080B582B000AF0200BB1D1A80394B1B7859
:10070000082B3ED051DC042B25D04EDC012B02D02F
:10071000022B0DD049E0BB1D00229B5E0A21180070
:10072000FFF7D8FD0B001BB2DAB22F4B1A7043E073
:10073000BB1D00229B5E0A211800FFF7E5FC0300A9
:100740001BB20A211800FFF7C5FD0B001BB2DAB27D
:10075000254B1A7030E0BB1D00229B5E64211800FF
:10076000FFF7D2FC03001BB20A211800FFF7B2FD0D
:100770000B001BB2DAB21C4B1A701C4B01221A7010
:100780001AE0BB1D00229B5EFA2291001800FFF7C1
:10079000BBFC03001BB20A211800FFF79BFD0B00F6
:1007A0001BB2DAB2104B1A7006E00F4B0A221A7015
:1007B0000C4B01221A7011E00B4B18780B4B197877
:1007C000084B1B781A00FFF78BFE084B00221A70AB
:1007D000044B1B78DB18DAB2024B1A70BD4602B02C
:1007E00080BDC0460A0000202A0000202B00002007
:1007F00080B584B000AF0200BB1D1A80BB1D002273
:100800009B5E3C211800FFF77FFC03001BB2FB60DE
:10081000BB1D00229B5E3C211800FFF75BFD0B0017
:100820001BB2BB60FB689BB2642253439AB2BB68A5
:100830009BB2D3189BB21BB21800BD4604B080BD5A
:1008400080B500AF194B00229A5E96235B009A4256
:1008500001DA012326E0154B00229A5E96235B0005
:10086000D017D90F9A4248410300DBB20F4A00214A
:10087000515E0122101C96229200914201DB00225F
:10088000101CC2B21340DBB2002B01D01E2309E0C2
:10089000064B00229A5E96239B009A4201DB3C2382
:1008A00000E000231800BD4680BDC046280000209F
:1008B00080B500AF4F4B1A694E4B01218A431A6134
:1008C000FFF79CFD4C4B1B78013BDAB24A4B1A7088
:1008D000494B1B78002B00D07DE0484B00229B5EEB
:1008E000DA17D31ADB0FDBB21A00454B1B78DB0695
:1008F000DB0FDBB2134009D0404B00229B5E9BB262
:10090000013B9BB21AB23D4B1A8061E03B4B002287
:100910009B5E5A425341DBB21A00394B1B78DB060F
:10092000DB0FDBB2134014D0354B1A7810218A4309
:100930001A70344B9A69334B802109020A439A6139
:100940002F4B1A7804210A431A702F4B00221A7079
:100950003EE02B4B1B7804221340DBB2002B37D038
:10096000294B1B78152B09D19023DB059A6990231D
:10097000DB05802109030A439A610DE09023DB0522
:100980005A699023DB0508214A405A611E4B1B78A7
:100990000133DAB21C4B1A701C4B5A691B4B802175
:1009A0004A405A61164B1B789B07DB0FDBB2DB43D7
:1009B000DBB21A1C01231340DAB2114B01210A40A9
:1009C00090181A7802218A43111C021C0A431A70DB
:1009D000094BFA221A700A4B1B7802221340DBB231
:1009E000002B04D1064B1A7801210A431A70C04625
:1009F000BD4680BD004401400B00002028000020BF
:100A000030000020000800482C00002000040048AE
:100A100080B500AFDE4B5A69DD4B9C21C9030A4308
:100A20005A61DB4B9A69DA4B8021C9020A439A6109
:100A3000D84B1A68D74B08210A431A60D54BD64ABF
:100A40009A62D34B1A68D24B802149020A431A603A
:100A5000D04B01225A61CF4BFA22DA62CD4B1A6891
:100A6000CC4B01210A431A600BE0CA4B1B680122E0
:100A7000134006D1C64B1A68C54BC8490A401A60D4
:100A800005E0C34B1A6880239B021340EDD0C44B92
:100A90001A68C34BC3490A431A609023DB051A68DE
:100AA0009023DB05C0490A431A60C04B1A68BF4B4C
:100AB0008021C9050A431A609023DB05DA68902378
:100AC000DB0515210A43DA60B84BDA68B74B8021A1
:100AD000C9040A43DA60AE4B9A69AD4B80218902A2
:100AE0000A439A61B24B01229A62B14BB14ADA626F
:100AF000AF4BDA68AE4B01210A43DA601520FFF7ED
:100B0000F5FB00211520FFF70BFCA94B1A68A84B39
:100B100001210A431A60A84B00221A70A64B1A78CA
:100B200008210A431A70A44B1A7801210A431A704B
:100B3000A24B00221A809D4B9A699C4B802109028E
:100B40000A439A619023DB059A699023DB05802193
:100B500009030A439A61924B9A69914B80210904D7
:100B60000A439A61914B1A6980239B01134000D17B
:100B70002AE1914B1B7808221340DBB2002B07D1EE
:100B80008D4B1B7820221340DBB2002B00D17AE082
:100B90008B4B1B7804221340DBB2002B06D1884B11
:100BA0005B7804221340DBB2002B21D0834B002260
:100BB0009B5E002B0DDDFFF743FE030019007F4B0A
:100BC00000229B5E9AB28BB2D31A9BB21AB27B4BB5
:100BD0001A80794B1A7801210A431A70784B1A78D7
:100BE00004218A431A70764B5A7804218A435A703A
:100BF000734B1B7802221340DBB2002B13D06E4BD9
:100C00001A7808218A431A706B4B1A7820218A437C
:100C10001A70694B1A7810210A431A70684B1A78B7
:100C200002218A431A70664B1B7801221340DBB203
:100C3000002B06D1624B5B7801221340DBB2002B04
:100C400021D05E4B00229B5E5E4A93420CDCFFF794
:100C5000F7FD03009AB2594B00215B5E9BB2D3189B
:100C60009BB21AB2554B1A80534B1A7801210A4392
:100C70001A70534B1A7801218A431A70504B5A78D4
:100C800001218A435A704C4B1B7810221340DBB26F
:100C9000002B1DD04A4B1B7802221340DBB2002BE5
:100CA0000ED0454B1A7820210A431A70424B1A780D
:100CB00010218A431A70424B1A7802218A431A7013
:100CC0003A4B9A69394B802109060A439A6106E03A
:100CD000364B9A69354B802109020A439A61384B99
:100CE0005B7802221340DBB2002B2BD0324B002268
:100CF0001A70314B1A7808210A431A702E4B1A7851
:100D000001210A431A702D4B00221A80274B9A6941
:100D1000264B802109020A439A619023DB059A69D8
:100D20009023DB05802109030A439A611C4B9A69D1
:100D30001B4B802109040A439A61214B5A780221F6
:100D40008A435A701C4B1B7801221340DBB2002BE4
:100D50000ED01A4B00229B5E1800FFF749FD0300DE
:100D60001800FFF7C5FC144B1A7801218A431A704A
:100D7000114B1B7802221340DBB2002B00D1F1E6AD
:100D8000074B9A69064BF02109060A439A61E9E686
:100D900000100240004801403F1F0000FFFFFEFF1F
:100DA0000004004815405055405401000008004818
:100DB000004401407F3E0000300000202800002059
:100DC000340000206E170000174B00221A80174BCA
:100DD0001800FFF78DFC164B00221A70144B1A787E
:100DE00008210A431A70124B1A7801210A431A701B
:100DF0000D4B00221A800F4B9A690E4B802109027D
:100E00000A439A619023DB059A699023DB058021D0
:100E100009030A439A61084B9A69074B8021090428
:100E20000A439A619EE6C04628000020B8220000CE
:100E30003000002000080048000400480D488546A6
:100E4000FFF74EFA0C480D490D4A002302E0D45832
:100E5000C4500433C4188C42F9D30A4A0A4C002304
:100E600001E013600432A242FBD300F011F8FFF757
:100E7000CFFDFEE700100020000000200C00002045
:100E8000200F00080C00002038000020FEE70000C2
:100E900070B500260C4D0D4C641BA410A64209D160
:100EA000002600F019F80A4D0A4C641BA410A64253
:100EB00005D170BDB300EB5898470136EEE7B3009B
:100EC000EB5898470136F2E7180F0008180F000892
:100ED000180F00081C0F0008F8B5C046F8BC08BC85
:100EE0009E467047F8B5C046F8BC08BC9E467047A1
:100EF0003E0500085C0500086E0500088C0500082A
:100F0000AA050008C8050008E60500080406000850
:080F1000160600083406000873
:040F1800E9000008E4
:040F1C00C100000808
:0C0F200007000000F4010000070701FAC0
:0400000508000E3DA4
:00000001FF
